{
  "contractName": "SupplyChain",
  "abi": [
    {
      "anonymous": false,
      "inputs": [
        {
          "indexed": false,
          "internalType": "uint256",
          "name": "productId",
          "type": "uint256"
        },
        {
          "indexed": false,
          "internalType": "string",
          "name": "name",
          "type": "string"
        },
        {
          "indexed": false,
          "internalType": "uint256",
          "name": "price",
          "type": "uint256"
        },
        {
          "indexed": false,
          "internalType": "address",
          "name": "owner",
          "type": "address"
        }
      ],
      "name": "ProductCreated",
      "type": "event"
    },
    {
      "inputs": [],
      "name": "productCounter",
      "outputs": [
        {
          "internalType": "uint256",
          "name": "",
          "type": "uint256"
        }
      ],
      "stateMutability": "view",
      "type": "function",
      "constant": true
    },
    {
      "inputs": [
        {
          "internalType": "uint256",
          "name": "",
          "type": "uint256"
        }
      ],
      "name": "products",
      "outputs": [
        {
          "internalType": "uint256",
          "name": "id",
          "type": "uint256"
        },
        {
          "internalType": "string",
          "name": "name",
          "type": "string"
        },
        {
          "internalType": "string",
          "name": "description",
          "type": "string"
        },
        {
          "internalType": "uint256",
          "name": "price",
          "type": "uint256"
        },
        {
          "internalType": "address payable",
          "name": "owner",
          "type": "address"
        },
        {
          "internalType": "enum SupplyChain.State",
          "name": "state",
          "type": "uint8"
        }
      ],
      "stateMutability": "view",
      "type": "function",
      "constant": true
    },
    {
      "inputs": [
        {
          "internalType": "string",
          "name": "_name",
          "type": "string"
        },
        {
          "internalType": "string",
          "name": "_description",
          "type": "string"
        },
        {
          "internalType": "uint256",
          "name": "_price",
          "type": "uint256"
        }
      ],
      "name": "addProduct",
      "outputs": [],
      "stateMutability": "nonpayable",
      "type": "function"
    }
  ],
  "bytecode": "0x60806040526000805534801561001457600080fd5b506106a7806100246000396000f3fe608060405234801561001057600080fd5b50600436106100415760003560e01c80631f16653b146100465780637acc0b2014610064578063f28ea1c114610089575b600080fd5b61004e61009e565b60405161005b9190610543565b60405180910390f35b6100776100723660046104e0565b6100a4565b60405161005b9695949392919061054c565b61009c610097366004610476565b6101f7565b005b60005481565b6001602081905260009182526040909120805491810180546100c5906105f9565b80601f01602080910402602001604051908101604052809291908181526020018280546100f1906105f9565b801561013e5780601f106101135761010080835404028352916020019161013e565b820191906000526020600020905b81548152906001019060200180831161012157829003601f168201915b505050505090806002018054610153906105f9565b80601f016020809104026020016040519081016040528092919081815260200182805461017f906105f9565b80156101cc5780601f106101a1576101008083540402835291602001916101cc565b820191906000526020600020905b8154815290600101906020018083116101af57829003601f168201915b5050505060038301546004909301549192916001600160a01b0381169150600160a01b900460ff1686565b60008054908061020683610634565b91905055506040518060c001604052806000548152602001848152602001838152602001828152602001336001600160a01b031681526020016000600581111561026057634e487b7160e01b600052602160045260246000fd5b905260008054815260016020818152604090922083518155838301518051919361028f9385019291019061035c565b50604082015180516102ab91600284019160209091019061035c565b506060820151600382015560808201516004820180546001600160a01b0319166001600160a01b039092169190911780825560a0840151919060ff60a01b1916600160a01b83600581111561031057634e487b7160e01b600052602160045260246000fd5b02179055509050507f2e87df3c8f53fb06266ed52023929f5fab9f24130224ef6538b665d9cac8253060005484833360405161034f94939291906105bf565b60405180910390a1505050565b828054610368906105f9565b90600052602060002090601f01602090048101928261038a57600085556103d0565b82601f106103a357805160ff19168380011785556103d0565b828001600101855582156103d0579182015b828111156103d05782518255916020019190600101906103b5565b506103dc9291506103e0565b5090565b5b808211156103dc57600081556001016103e1565b600082601f830112610405578081fd5b813567ffffffffffffffff808211156104205761042061065b565b604051601f8301601f1916810160200182811182821017156104445761044461065b565b60405282815284830160200186101561045b578384fd5b82602086016020830137918201602001929092529392505050565b60008060006060848603121561048a578283fd5b833567ffffffffffffffff808211156104a1578485fd5b6104ad878388016103f5565b945060208601359150808211156104c2578384fd5b506104cf868287016103f5565b925050604084013590509250925092565b6000602082840312156104f1578081fd5b5035919050565b60008151808452815b8181101561051d57602081850181015186830182015201610501565b8181111561052e5782602083870101525b50601f01601f19169290920160200192915050565b90815260200190565b600087825260c0602083015261056560c08301886104f8565b828103604084015261057781886104f8565b606084018790526001600160a01b0386166080850152915050600683106105ae57634e487b7160e01b600052602160045260246000fd5b8260a0830152979650505050505050565b6000858252608060208301526105d860808301866104f8565b6040830194909452506001600160a01b039190911660609091015292915050565b60028104600182168061060d57607f821691505b6020821081141561062e57634e487b7160e01b600052602260045260246000fd5b50919050565b600060001982141561065457634e487b7160e01b81526011600452602481fd5b5060010190565b634e487b7160e01b600052604160045260246000fdfea2646970667358221220d0d1807ad830b23c9230afe6ae4b9678dde6a298e6edf476399998c5896705ac64736f6c63430008000033",
  "immutableReferences": {},
  "source": "// SPDX-License-Identifier: MIT\r\npragma solidity ^0.8.0;\r\n\r\ncontract SupplyChain {\r\n    uint public productCounter = 0;\r\n\r\n    enum State { Created, Manufactured, ForSale, Sold, Shipped, Delivered }\r\n\r\n    struct Product {\r\n        uint id;\r\n        string name;               // Product name (short)\r\n        string description;        // Product description (short)\r\n        uint price;                // Product price in Wei\r\n        address payable owner;     // Owner's address\r\n        State state;               // Product state in supply chain\r\n    }\r\n\r\n    mapping(uint => Product) public products;\r\n\r\n    event ProductCreated(uint productId, string name, uint price, address owner);\r\n\r\n    modifier onlyOwner(uint _productId) {\r\n        require(msg.sender == products[_productId].owner, \"Not the product owner\");\r\n        _;\r\n    }\r\n\r\n    modifier inState(uint _productId, State _state) {\r\n        require(products[_productId].state == _state, \"Invalid product state\");\r\n        _;\r\n    }\r\n\r\n    // Rename createProduct to addProduct\r\n    function addProduct(\r\n        string memory _name,\r\n        string memory _description,\r\n        uint _price\r\n    ) public {\r\n        productCounter++;\r\n        products[productCounter] = Product(\r\n            productCounter,\r\n            _name,\r\n            _description,\r\n            _price,\r\n            payable(msg.sender),\r\n            State.Created\r\n        );\r\n        emit ProductCreated(productCounter, _name, _price, msg.sender);\r\n    }\r\n\r\n    // Additional functions for state transitions (manufacturing, selling, shipping, etc.) can be added here\r\n}\r\n",
  "sourcePath": "E:\\New folder (2)\\blockchain\\project\\contracts\\SuplyChain.sol",
  "compiler": {
    "name": "solc",
    "version": "0.8.0+commit.c7dfd78e.Emscripten.clang"
  },
  "schemaVersion": "3.4.16",
  "updatedAt": "2024-11-19T07:27:52.848Z",
  "networkType": "ethereum",
  "devdoc": {
    "kind": "dev",
    "methods": {},
    "version": 1
  },
  "userdoc": {
    "kind": "user",
    "methods": {},
    "version": 1
  }
}